{
    "contractName": "MyICO",
    "abi": [
        {
            "constant": true,
            "inputs": [],
            "name": "hasClosed",
            "outputs": [
                {
                    "internalType": "bool",
                    "name": "",
                    "type": "bool"
                }
            ],
            "payable": false,
            "stateMutability": "view",
            "type": "function"
        },
        {
            "constant": true,
            "inputs": [],
            "name": "rate",
            "outputs": [
                {
                    "internalType": "uint256",
                    "name": "",
                    "type": "uint256"
                }
            ],
            "payable": false,
            "stateMutability": "view",
            "type": "function"
        },
        {
            "constant": true,
            "inputs": [],
            "name": "cap",
            "outputs": [
                {
                    "internalType": "uint256",
                    "name": "",
                    "type": "uint256"
                }
            ],
            "payable": false,
            "stateMutability": "view",
            "type": "function"
        },
        {
            "constant": true,
            "inputs": [],
            "name": "goal",
            "outputs": [
                {
                    "internalType": "uint256",
                    "name": "",
                    "type": "uint256"
                }
            ],
            "payable": false,
            "stateMutability": "view",
            "type": "function"
        },
        {
            "constant": true,
            "inputs": [],
            "name": "weiRaised",
            "outputs": [
                {
                    "internalType": "uint256",
                    "name": "",
                    "type": "uint256"
                }
            ],
            "payable": false,
            "stateMutability": "view",
            "type": "function"
        },
        {
            "constant": true,
            "inputs": [],
            "name": "isOpen",
            "outputs": [
                {
                    "internalType": "bool",
                    "name": "",
                    "type": "bool"
                }
            ],
            "payable": false,
            "stateMutability": "view",
            "type": "function"
        },
        {
            "constant": false,
            "inputs": [
                {
                    "internalType": "address",
                    "name": "beneficiary",
                    "type": "address"
                }
            ],
            "name": "withdrawTokens",
            "outputs": [],
            "payable": false,
            "stateMutability": "nonpayable",
            "type": "function"
        },
        {
            "constant": true,
            "inputs": [],
            "name": "closingTime",
            "outputs": [
                {
                    "internalType": "uint256",
                    "name": "",
                    "type": "uint256"
                }
            ],
            "payable": false,
            "stateMutability": "view",
            "type": "function"
        },
        {
            "constant": false,
            "inputs": [],
            "name": "finalize",
            "outputs": [],
            "payable": false,
            "stateMutability": "nonpayable",
            "type": "function"
        },
        {
            "constant": true,
            "inputs": [],
            "name": "capReached",
            "outputs": [
                {
                    "internalType": "bool",
                    "name": "",
                    "type": "bool"
                }
            ],
            "payable": false,
            "stateMutability": "view",
            "type": "function"
        },
        {
            "constant": true,
            "inputs": [],
            "name": "wallet",
            "outputs": [
                {
                    "internalType": "address payable",
                    "name": "",
                    "type": "address"
                }
            ],
            "payable": false,
            "stateMutability": "view",
            "type": "function"
        },
        {
            "constant": true,
            "inputs": [
                {
                    "internalType": "address",
                    "name": "account",
                    "type": "address"
                }
            ],
            "name": "balanceOf",
            "outputs": [
                {
                    "internalType": "uint256",
                    "name": "",
                    "type": "uint256"
                }
            ],
            "payable": false,
            "stateMutability": "view",
            "type": "function"
        },
        {
            "constant": false,
            "inputs": [],
            "name": "renounceOwnership",
            "outputs": [],
            "payable": false,
            "stateMutability": "nonpayable",
            "type": "function"
        },
        {
            "constant": true,
            "inputs": [],
            "name": "goalReached",
            "outputs": [
                {
                    "internalType": "bool",
                    "name": "",
                    "type": "bool"
                }
            ],
            "payable": false,
            "stateMutability": "view",
            "type": "function"
        },
        {
            "constant": true,
            "inputs": [],
            "name": "owner",
            "outputs": [
                {
                    "internalType": "address",
                    "name": "",
                    "type": "address"
                }
            ],
            "payable": false,
            "stateMutability": "view",
            "type": "function"
        },
        {
            "constant": true,
            "inputs": [],
            "name": "isOwner",
            "outputs": [
                {
                    "internalType": "bool",
                    "name": "",
                    "type": "bool"
                }
            ],
            "payable": false,
            "stateMutability": "view",
            "type": "function"
        },
        {
            "constant": true,
            "inputs": [],
            "name": "finalized",
            "outputs": [
                {
                    "internalType": "bool",
                    "name": "",
                    "type": "bool"
                }
            ],
            "payable": false,
            "stateMutability": "view",
            "type": "function"
        },
        {
            "constant": true,
            "inputs": [],
            "name": "openingTime",
            "outputs": [
                {
                    "internalType": "uint256",
                    "name": "",
                    "type": "uint256"
                }
            ],
            "payable": false,
            "stateMutability": "view",
            "type": "function"
        },
        {
            "constant": true,
            "inputs": [],
            "name": "remainingTokens",
            "outputs": [
                {
                    "internalType": "uint256",
                    "name": "",
                    "type": "uint256"
                }
            ],
            "payable": false,
            "stateMutability": "view",
            "type": "function"
        },
        {
            "constant": true,
            "inputs": [],
            "name": "tokenWallet",
            "outputs": [
                {
                    "internalType": "address",
                    "name": "",
                    "type": "address"
                }
            ],
            "payable": false,
            "stateMutability": "view",
            "type": "function"
        },
        {
            "constant": false,
            "inputs": [
                {
                    "internalType": "address payable",
                    "name": "refundee",
                    "type": "address"
                }
            ],
            "name": "claimRefund",
            "outputs": [],
            "payable": false,
            "stateMutability": "nonpayable",
            "type": "function"
        },
        {
            "constant": false,
            "inputs": [],
            "name": "changeRound",
            "outputs": [],
            "payable": false,
            "stateMutability": "nonpayable",
            "type": "function"
        },
        {
            "constant": false,
            "inputs": [
                {
                    "internalType": "address",
                    "name": "beneficiary",
                    "type": "address"
                }
            ],
            "name": "buyTokens",
            "outputs": [],
            "payable": true,
            "stateMutability": "payable",
            "type": "function"
        },
        {
            "constant": false,
            "inputs": [
                {
                    "internalType": "address",
                    "name": "newOwner",
                    "type": "address"
                }
            ],
            "name": "transferOwnership",
            "outputs": [],
            "payable": false,
            "stateMutability": "nonpayable",
            "type": "function"
        },
        {
            "constant": true,
            "inputs": [],
            "name": "token",
            "outputs": [
                {
                    "internalType": "contract IERC20",
                    "name": "",
                    "type": "address"
                }
            ],
            "payable": false,
            "stateMutability": "view",
            "type": "function"
        },
        {
            "inputs": [
                {
                    "internalType": "uint256",
                    "name": "rate",
                    "type": "uint256"
                },
                {
                    "internalType": "address payable",
                    "name": "wallet",
                    "type": "address"
                },
                {
                    "internalType": "contract IERC20",
                    "name": "token",
                    "type": "address"
                },
                {
                    "internalType": "address",
                    "name": "tokenOwner",
                    "type": "address"
                },
                {
                    "internalType": "uint256",
                    "name": "softcap",
                    "type": "uint256"
                },
                {
                    "internalType": "uint256",
                    "name": "hardcap",
                    "type": "uint256"
                },
                {
                    "internalType": "uint256",
                    "name": "startTime",
                    "type": "uint256"
                },
                {
                    "internalType": "uint256",
                    "name": "endTime",
                    "type": "uint256"
                }
            ],
            "payable": false,
            "stateMutability": "nonpayable",
            "type": "constructor"
        },
        {
            "payable": true,
            "stateMutability": "payable",
            "type": "fallback"
        },
        {
            "anonymous": false,
            "inputs": [],
            "name": "CrowdsaleFinalized",
            "type": "event"
        },
        {
            "anonymous": false,
            "inputs": [
                {
                    "indexed": false,
                    "internalType": "uint256",
                    "name": "prevClosingTime",
                    "type": "uint256"
                },
                {
                    "indexed": false,
                    "internalType": "uint256",
                    "name": "newClosingTime",
                    "type": "uint256"
                }
            ],
            "name": "TimedCrowdsaleExtended",
            "type": "event"
        },
        {
            "anonymous": false,
            "inputs": [
                {
                    "indexed": true,
                    "internalType": "address",
                    "name": "purchaser",
                    "type": "address"
                },
                {
                    "indexed": true,
                    "internalType": "address",
                    "name": "beneficiary",
                    "type": "address"
                },
                {
                    "indexed": false,
                    "internalType": "uint256",
                    "name": "value",
                    "type": "uint256"
                },
                {
                    "indexed": false,
                    "internalType": "uint256",
                    "name": "amount",
                    "type": "uint256"
                }
            ],
            "name": "TokensPurchased",
            "type": "event"
        },
        {
            "anonymous": false,
            "inputs": [
                {
                    "indexed": true,
                    "internalType": "address",
                    "name": "previousOwner",
                    "type": "address"
                },
                {
                    "indexed": true,
                    "internalType": "address",
                    "name": "newOwner",
                    "type": "address"
                }
            ],
            "name": "OwnershipTransferred",
            "type": "event"
        }
    ],
    "bytecode": "608060405260006012553480156200001657600080fd5b50604051620032003803806200320083398181016040526101008110156200003d57600080fd5b508051602082015160408301516060840151608085015160a086015160c087015160e09097015195969495939492939192909184848383868c8c8c6200008b6001600160e01b036200057416565b600080546001600160a01b0319166001600160a01b03928316178082556040519216917f8be0079c531659141344cd1fd0a4f28419497f9722a3daafe3b4186f6b6457e0908290a360018055826200014457604080517f08c379a000000000000000000000000000000000000000000000000000000000815260206004820152601460248201527f43726f776473616c653a20726174652069732030000000000000000000000000604482015290519081900360640190fd5b6001600160a01b038216620001a5576040517f08c379a0000000000000000000000000000000000000000000000000000000008152600401808060200182810382526025815260200180620031db6025913960400191505060405180910390fd5b6001600160a01b03811662000206576040517f08c379a0000000000000000000000000000000000000000000000000000000008152600401808060200182810382526024815260200180620031b76024913960400191505060405180910390fd5b600492909255600380546001600160a01b039283166001600160a01b0319918216179091556002805492909316911617905580620002a557604080517f08c379a000000000000000000000000000000000000000000000000000000000815260206004820152601960248201527f43617070656443726f776473616c653a20636170206973203000000000000000604482015290519081900360640190fd5b6006554282101562000303576040517f08c379a0000000000000000000000000000000000000000000000000000000008152600401808060200182810382526033815260200180620031196033913960400191505060405180910390fd5b8181116200035d576040517f08c379a0000000000000000000000000000000000000000000000000000000008152600401808060200182810382526037815260200180620031806037913960400191505060405180910390fd5b6007919091556008556009805460ff1916905580620003dd57604080517f08c379a000000000000000000000000000000000000000000000000000000000815260206004820152601e60248201527f526566756e6461626c6543726f776473616c653a20676f616c20697320300000604482015290519081900360640190fd5b620003f06001600160e01b036200057816565b604051620003fe9062000776565b6001600160a01b03909116815260405190819003602001906000f0801580156200042c573d6000803e3d6000fd5b50600b80546001600160a01b0319166001600160a01b0392909216919091179055600a556040516200045e9062000784565b604051809103906000f0801580156200047b573d6000803e3d6000fd5b50600d80546001600160a01b0319166001600160a01b039283161790558116620004f1576040517f08c379a00000000000000000000000000000000000000000000000000000000081526004018080602001828103825260348152602001806200314c6034913960400191505060405180910390fd5b600e80546001600160a01b0319166001600160a01b0392909216919091179055876200051c57600080fd5b6001600160a01b0387166200053057600080fd5b6001600160a01b0386166200054457600080fd5b60118890556010829055600f819055620005666001600160e01b036200058716565b505050505050505062000792565b3390565b6003546001600160a01b031690565b6200059a6001600160e01b036200074716565b6200060657604080517f08c379a000000000000000000000000000000000000000000000000000000000815260206004820181905260248201527f4f776e61626c653a2063616c6c6572206973206e6f7420746865206f776e6572604482015290519081900360640190fd5b600f544211156200067857604080517f08c379a000000000000000000000000000000000000000000000000000000000815260206004820152601360248201527f43726f776453616c652068617320456e64656400000000000000000000000000604482015290519081900360640190fd5b600660125410620006ea57604080517f08c379a000000000000000000000000000000000000000000000000000000000815260206004820152601160248201527f526f756e64732045786365646465642121000000000000000000000000000000604482015290519081900360640190fd5b60125460011415620007055760118054600202905562000745565b601254600214806200071957506012546003145b806200072757506012546004145b15620007335762000745565b6002601154816200074057fe5b046011555b565b600080546001600160a01b0316620007676001600160e01b036200057416565b6001600160a01b031614905090565b610e028062001f4d83390190565b6103ca8062002d4f83390190565b6117ab80620007a26000396000f3fe6080604052600436106101665760003560e01c8063715018a6116100d1578063bf5839031161008a578063dd506e0911610064578063dd506e09146103cd578063ec8ac4d8146103e2578063f2fde38b14610408578063fc0c546a1461043b57610166565b8063bf58390314610370578063bff99c6c14610385578063bffa55d51461039a57610166565b8063715018a6146102f25780637d3d6522146103075780638da5cb5b1461031c5780638f32d59b14610331578063b3f05b9714610346578063b7a8807c1461035b57610166565b806349df728c1161012357806349df728c1461021c5780634b6753bc1461024f5780634bb278f3146102645780634f93594514610279578063521eb2731461028e57806370a08231146102bf57610166565b80631515bc2b146101785780632c4e722e146101a1578063355274ea146101c857806340193883146101dd5780634042b66f146101f257806347535d7b14610207575b610176610171610450565b610454565b005b34801561018457600080fd5b5061018d610569565b604080519115158252519081900360200190f35b3480156101ad57600080fd5b506101b6610571565b60408051918252519081900360200190f35b3480156101d457600080fd5b506101b6610577565b3480156101e957600080fd5b506101b661057d565b3480156101fe57600080fd5b506101b6610583565b34801561021357600080fd5b5061018d610589565b34801561022857600080fd5b506101766004803603602081101561023f57600080fd5b50356001600160a01b03166105a4565b34801561025b57600080fd5b506101b6610636565b34801561027057600080fd5b5061017661063c565b34801561028557600080fd5b5061018d610717565b34801561029a57600080fd5b506102a361072b565b604080516001600160a01b039092168252519081900360200190f35b3480156102cb57600080fd5b506101b6600480360360208110156102e257600080fd5b50356001600160a01b031661073a565b3480156102fe57600080fd5b50610176610755565b34801561031357600080fd5b5061018d6107e6565b34801561032857600080fd5b506102a36107f3565b34801561033d57600080fd5b5061018d610802565b34801561035257600080fd5b5061018d610826565b34801561036757600080fd5b506101b661082f565b34801561037c57600080fd5b506101b6610835565b34801561039157600080fd5b506102a3610949565b3480156103a657600080fd5b50610176600480360360208110156103bd57600080fd5b50356001600160a01b0316610958565b3480156103d957600080fd5b50610176610a48565b610176600480360360208110156103f857600080fd5b50356001600160a01b0316610454565b34801561041457600080fd5b506101766004803603602081101561042b57600080fd5b50356001600160a01b0316610b46565b34801561044757600080fd5b506102a3610b96565b3390565b60018054810190819055346104698382610ba5565b600061047482610c08565b60055490915061048a908363ffffffff610c2516565b6005556104978482610c86565b836001600160a01b03166104a9610450565b6001600160a01b03167f6faf93231a456e552dbc9961f58d9713ee4f2e69d15f1975b050ef0911053a7b8484604051808381526020018281526020019250505060405180910390a36104fb8483610565565b610503610cda565b61050d8483610565565b50506001548114610565576040805162461bcd60e51b815260206004820152601f60248201527f5265656e7472616e637947756172643a207265656e7472616e742063616c6c00604482015290519081900360640190fd5b5050565b600854421190565b60115490565b60065490565b600a5490565b60055490565b6000600754421015801561059f57506008544211155b905090565b6105ac610826565b6105e75760405162461bcd60e51b815260040180806020018281038252602e81526020018061159a602e913960400191505060405180910390fd5b6105ef6107e6565b61062a5760405162461bcd60e51b81526004018080602001828103825260318152602001806115ee6031913960400191505060405180910390fd5b61063381610d3b565b50565b60085490565b60095460ff161561067e5760405162461bcd60e51b81526004018080602001828103825260278152602001806116986027913960400191505060405180910390fd5b610686610569565b6106d7576040805162461bcd60e51b815260206004820181905260248201527f46696e616c697a61626c6543726f776473616c653a206e6f7420636c6f736564604482015290519081900360640190fd5b6009805460ff191660011790556106ec610e6f565b6040517f9270cc390c096600a1c17c44345a1ba689fafd99d97487b10cfccf86cf73183690600090a1565b6000600654610724610583565b1015905090565b6003546001600160a01b031690565b6001600160a01b03166000908152600c602052604090205490565b61075d610802565b61079c576040805162461bcd60e51b81526020600482018190526024820152600080516020611678833981519152604482015290519081900360640190fd5b600080546040516001600160a01b03909116907f8be0079c531659141344cd1fd0a4f28419497f9722a3daafe3b4186f6b6457e0908390a3600080546001600160a01b0319169055565b6000600a54610724610583565b6000546001600160a01b031690565b600080546001600160a01b0316610817610450565b6001600160a01b031614905090565b60095460ff1690565b60075490565b600061059f610842610b96565b600e54604080516370a0823160e01b81526001600160a01b039283166004820152905192909116916370a0823191602480820192602092909190829003018186803b15801561089057600080fd5b505afa1580156108a4573d6000803e3d6000fd5b505050506040513d60208110156108ba57600080fd5b50516108c4610b96565b600e5460408051636eb1769f60e11b81526001600160a01b0392831660048201523060248201529051929091169163dd62ed3e91604480820192602092909190829003018186803b15801561091857600080fd5b505afa15801561092c573d6000803e3d6000fd5b505050506040513d602081101561094257600080fd5b5051610fc2565b600e546001600160a01b031690565b610960610826565b61099b5760405162461bcd60e51b815260040180806020018281038252602281526020018061172b6022913960400191505060405180910390fd5b6109a36107e6565b156109df5760405162461bcd60e51b81526004018080602001828103825260218152602001806116bf6021913960400191505060405180910390fd5b600b54604080516351cff8d960e01b81526001600160a01b038481166004830152915191909216916351cff8d991602480830192600092919082900301818387803b158015610a2d57600080fd5b505af1158015610a41573d6000803e3d6000fd5b5050505050565b610a50610802565b610a8f576040805162461bcd60e51b81526020600482018190526024820152600080516020611678833981519152604482015290519081900360640190fd5b600f54421115610adc576040805162461bcd60e51b815260206004820152601360248201527210dc9bddd914d85b19481a185cc8115b991959606a1b604482015290519081900360640190fd5b601054421015610b33576040805162461bcd60e51b815260206004820152601960248201527f43726f776453616c6520686173206e6f74205374617274656400000000000000604482015290519081900360640190fd5b601280546001019055610b44610fd8565b565b610b4e610802565b610b8d576040805162461bcd60e51b81526020600482018190526024820152600080516020611678833981519152604482015290519081900360640190fd5b6106338161110c565b6002546001600160a01b031690565b610bad610589565b610bfe576040805162461bcd60e51b815260206004820152601860248201527f54696d656443726f776473616c653a206e6f74206f70656e0000000000000000604482015290519081900360640190fd5b61056582826111ac565b6000610c1f6011548361122490919063ffffffff16565b92915050565b600082820183811015610c7f576040805162461bcd60e51b815260206004820152601b60248201527f536166654d6174683a206164646974696f6e206f766572666c6f770000000000604482015290519081900360640190fd5b9392505050565b6001600160a01b0382166000908152600c6020526040902054610caf908263ffffffff610c2516565b6001600160a01b038084166000908152600c6020526040902091909155600d5461056591168261127d565b600b546001600160a01b031663f340fa0134610cf4610450565b6040518363ffffffff1660e01b815260040180826001600160a01b03166001600160a01b031681526020019150506000604051808303818588803b158015610a2d57600080fd5b610d43610569565b610d7e5760405162461bcd60e51b815260040180806020018281038252602181526020018061170a6021913960400191505060405180910390fd5b6001600160a01b0381166000908152600c602052604090205480610dd35760405162461bcd60e51b815260040180806020018281038252603881526020018061161f6038913960400191505060405180910390fd5b6001600160a01b038083166000908152600c6020526040812055600d541663beabacc8610dfe610b96565b604080516001600160e01b031960e085901b1681526001600160a01b03928316600482015291861660248301526044820185905251606480830192600092919082900301818387803b158015610e5357600080fd5b505af1158015610e67573d6000803e3d6000fd5b505050505050565b610e776107e6565b15610f5157600b60009054906101000a90046001600160a01b03166001600160a01b03166343d726d66040518163ffffffff1660e01b8152600401600060405180830381600087803b158015610ecc57600080fd5b505af1158015610ee0573d6000803e3d6000fd5b50505050600b60009054906101000a90046001600160a01b03166001600160a01b0316639af6549a6040518163ffffffff1660e01b8152600401600060405180830381600087803b158015610f3457600080fd5b505af1158015610f48573d6000803e3d6000fd5b50505050610fba565b600b60009054906101000a90046001600160a01b03166001600160a01b0316638c52dc416040518163ffffffff1660e01b8152600401600060405180830381600087803b158015610fa157600080fd5b505af1158015610fb5573d6000803e3d6000fd5b505050505b610b44610b44565b6000818310610fd15781610c7f565b5090919050565b610fe0610802565b61101f576040805162461bcd60e51b81526020600482018190526024820152600080516020611678833981519152604482015290519081900360640190fd5b600f5442111561106c576040805162461bcd60e51b815260206004820152601360248201527210dc9bddd914d85b19481a185cc8115b991959606a1b604482015290519081900360640190fd5b6006601254106110b7576040805162461bcd60e51b8152602060048201526011602482015270526f756e6473204578636564646564212160781b604482015290519081900360640190fd5b601254600114156110d057601180546002029055610b44565b601254600214806110e357506012546003145b806110f057506012546004145b156110fa57610b44565b60026011548161110657fe5b04601155565b6001600160a01b0381166111515760405162461bcd60e51b81526004018080602001828103825260268152602001806115c86026913960400191505060405180910390fd5b600080546040516001600160a01b03808516939216917f8be0079c531659141344cd1fd0a4f28419497f9722a3daafe3b4186f6b6457e091a3600080546001600160a01b0319166001600160a01b0392909216919091179055565b6111b682826112ae565b6006546111d1826111c5610583565b9063ffffffff610c2516565b1115610565576040805162461bcd60e51b815260206004820152601d60248201527f43617070656443726f776473616c653a20636170206578636565646564000000604482015290519081900360640190fd5b60008261123357506000610c1f565b8282028284828161124057fe5b0414610c7f5760405162461bcd60e51b81526004018080602001828103825260218152602001806116576021913960400191505060405180910390fd5b600e54610565906001600160a01b03168383611297610b96565b6001600160a01b031692919063ffffffff61134516565b6001600160a01b0382166112f35760405162461bcd60e51b815260040180806020018281038252602a8152602001806116e0602a913960400191505060405180910390fd5b80610565576040805162461bcd60e51b815260206004820152601960248201527f43726f776473616c653a20776569416d6f756e74206973203000000000000000604482015290519081900360640190fd5b604080516001600160a01b0385811660248301528416604482015260648082018490528251808303909101815260849091019091526020810180516001600160e01b03166323b872dd60e01b17905261139f9085906113a5565b50505050565b6113b7826001600160a01b031661155d565b611408576040805162461bcd60e51b815260206004820152601f60248201527f5361666545524332303a2063616c6c20746f206e6f6e2d636f6e747261637400604482015290519081900360640190fd5b60006060836001600160a01b0316836040518082805190602001908083835b602083106114465780518252601f199092019160209182019101611427565b6001836020036101000a0380198251168184511680821785525050505050509050019150506000604051808303816000865af19150503d80600081146114a8576040519150601f19603f3d011682016040523d82523d6000602084013e6114ad565b606091505b509150915081611504576040805162461bcd60e51b815260206004820181905260248201527f5361666545524332303a206c6f772d6c6576656c2063616c6c206661696c6564604482015290519081900360640190fd5b80511561139f5780806020019051602081101561152057600080fd5b505161139f5760405162461bcd60e51b815260040180806020018281038252602a81526020018061174d602a913960400191505060405180910390fd5b6000813f7fc5d2460186f7233c927e7db2dcc703c0e500b653ca82273b7bfad8045d85a47081158015906115915750808214155b94935050505056fe526566756e6461626c65506f737444656c697665727943726f776473616c653a206e6f742066696e616c697a65644f776e61626c653a206e6577206f776e657220697320746865207a65726f2061646472657373526566756e6461626c65506f737444656c697665727943726f776473616c653a20676f616c206e6f742072656163686564506f737444656c697665727943726f776473616c653a2062656e6566696369617279206973206e6f742064756520616e7920746f6b656e73536166654d6174683a206d756c7469706c69636174696f6e206f766572666c6f774f776e61626c653a2063616c6c6572206973206e6f7420746865206f776e657246696e616c697a61626c6543726f776473616c653a20616c72656164792066696e616c697a6564526566756e6461626c6543726f776473616c653a20676f616c207265616368656443726f776473616c653a2062656e656669636961727920697320746865207a65726f2061646472657373506f737444656c697665727943726f776473616c653a206e6f7420636c6f736564526566756e6461626c6543726f776473616c653a206e6f742066696e616c697a65645361666545524332303a204552433230206f7065726174696f6e20646964206e6f742073756363656564a265627a7a72315820f321e37c482e49e6c9c48ac829f126802e8cc372d58691d16aaff6748a9662c464736f6c634300050b0032608060405234801561001057600080fd5b50604051610e02380380610e028339818101604052602081101561003357600080fd5b50516100466001600160e01b0361012a16565b600080546001600160a01b0319166001600160a01b0392831617908190556040805191909216815290517f4101e71e974f68df5e9730cc223280b41654676bbb052cdcc735c3337e64d2d9916020908290030190a16001600160a01b0381166100fa576040517f08c379a000000000000000000000000000000000000000000000000000000000815260040180806020018281038252602d815260200180610dd5602d913960400191505060405180910390fd5b6002805460ff196001600160a01b039390931661010002610100600160a81b03199091161791909116905561012e565b3390565b610c988061013d6000396000f3fe6080604052600436106100a75760003560e01c80638c52dc41116100645780638c52dc41146101d45780639af6549a146101e9578063c19d93fb146101fe578063c6dbdf6114610237578063e3a9db1a1461024c578063f340fa0114610291576100a7565b80632348238c146100ac57806338af3eed146100e157806343d726d61461011257806351cff8d9146101275780636809691a1461015a578063685ca1941461018d575b600080fd5b3480156100b857600080fd5b506100df600480360360208110156100cf57600080fd5b50356001600160a01b03166102b7565b005b3480156100ed57600080fd5b506100f66103af565b604080516001600160a01b039092168252519081900360200190f35b34801561011e57600080fd5b506100df6103c3565b34801561013357600080fd5b506100df6004803603602081101561014a57600080fd5b50356001600160a01b03166104a2565b34801561016657600080fd5b506100df6004803603602081101561017d57600080fd5b50356001600160a01b03166104f2565b34801561019957600080fd5b506101c0600480360360208110156101b057600080fd5b50356001600160a01b03166105bc565b604080519115158252519081900360200190f35b3480156101e057600080fd5b506100df6105d8565b3480156101f557600080fd5b506100df6106b8565b34801561020a57600080fd5b50610213610746565b6040518082600281111561022357fe5b60ff16815260200191505060405180910390f35b34801561024357600080fd5b506100f661074f565b34801561025857600080fd5b5061027f6004803603602081101561026f57600080fd5b50356001600160a01b031661075e565b60408051918252519081900360200190f35b6100df600480360360208110156102a757600080fd5b50356001600160a01b0316610779565b6000546001600160a01b03166102cb6107d1565b6001600160a01b0316146103105760405162461bcd60e51b815260040180806020018281038252602c815260200180610c06602c913960400191505060405180910390fd5b6001600160a01b0381166103555760405162461bcd60e51b815260040180806020018281038252602a815260200180610bdc602a913960400191505060405180910390fd5b600080546001600160a01b0319166001600160a01b03838116919091179182905560408051929091168252517f4101e71e974f68df5e9730cc223280b41654676bbb052cdcc735c3337e64d2d9916020908290030190a150565b60025461010090046001600160a01b031690565b6000546001600160a01b03166103d76107d1565b6001600160a01b03161461041c5760405162461bcd60e51b815260040180806020018281038252602c815260200180610c06602c913960400191505060405180910390fd5b60006002805460ff169081111561042f57fe5b1461046b5760405162461bcd60e51b8152600401808060200182810382526029815260200180610bb36029913960400191505060405180910390fd5b6002805460ff1916811790556040517f088672c3a6e342f7cd94a65ba63b79df24a8973927b4d05d803c44bbf787d12f90600090a1565b6104ab816105bc565b6104e65760405162461bcd60e51b8152600401808060200182810382526033815260200180610b806033913960400191505060405180910390fd5b6104ef816107d5565b50565b6000546001600160a01b03166105066107d1565b6001600160a01b03161461054b5760405162461bcd60e51b815260040180806020018281038252602c815260200180610c06602c913960400191505060405180910390fd5b6001600160a01b0381166000818152600160205260408120805491905590610579908263ffffffff6108bc16565b6040805182815290516001600160a01b038416917f7084f5476618d8e60b11ef0d7d3f06914655adb8793e28ff7f018d4c76d505d5919081900360200190a25050565b600060016002805460ff16908111156105d157fe5b1492915050565b6000546001600160a01b03166105ec6107d1565b6001600160a01b0316146106315760405162461bcd60e51b815260040180806020018281038252602c815260200180610c06602c913960400191505060405180910390fd5b60006002805460ff169081111561064457fe5b146106805760405162461bcd60e51b8152600401808060200182810382526032815260200180610c326032913960400191505060405180910390fd5b6002805460ff191660011790556040517f599d8e5a83cffb867d051598c4d70e805d59802d8081c1c7d6dffc5b6aca2b8990600090a1565b6002805460ff16818111156106c957fe5b146107055760405162461bcd60e51b8152600401808060200182810382526038815260200180610ae36038913960400191505060405180910390fd5b6002546040516001600160a01b036101009092049190911690303180156108fc02916000818181858888f193505050501580156104ef573d6000803e3d6000fd5b60025460ff1690565b6000546001600160a01b031690565b6001600160a01b031660009081526001602052604090205490565b60006002805460ff169081111561078c57fe5b146107c85760405162461bcd60e51b815260040180806020018281038252602b815260200180610b55602b913960400191505060405180910390fd5b6104ef816109a7565b3390565b6000546001600160a01b03166107e96107d1565b6001600160a01b03161461082e5760405162461bcd60e51b815260040180806020018281038252602c815260200180610c06602c913960400191505060405180910390fd5b6001600160a01b038116600081815260016020526040808220805490839055905190929183156108fc02918491818181858888f19350505050158015610878573d6000803e3d6000fd5b506040805182815290516001600160a01b038416917f7084f5476618d8e60b11ef0d7d3f06914655adb8793e28ff7f018d4c76d505d5919081900360200190a25050565b3031811115610912576040805162461bcd60e51b815260206004820152601d60248201527f416464726573733a20696e73756666696369656e742062616c616e6365000000604482015290519081900360640190fd5b6040516000906001600160a01b0384169083908381818185875af1925050503d806000811461095d576040519150601f19603f3d011682016040523d82523d6000602084013e610962565b606091505b50509050806109a25760405162461bcd60e51b815260040180806020018281038252603a815260200180610b1b603a913960400191505060405180910390fd5b505050565b6000546001600160a01b03166109bb6107d1565b6001600160a01b031614610a005760405162461bcd60e51b815260040180806020018281038252602c815260200180610c06602c913960400191505060405180910390fd5b6001600160a01b0381166000908152600160205260409020543490610a2b908263ffffffff610a8116565b6001600160a01b038316600081815260016020908152604091829020939093558051848152905191927f2da466a7b24304f47e87fa2e1e5a81b9831ce54fec19055ce277ca2f39ba42c492918290030190a25050565b600082820183811015610adb576040805162461bcd60e51b815260206004820152601b60248201527f536166654d6174683a206164646974696f6e206f766572666c6f770000000000604482015290519081900360640190fd5b939250505056fe526566756e64457363726f773a2062656e65666963696172792063616e206f6e6c79207769746864726177207768696c6520636c6f736564416464726573733a20756e61626c6520746f2073656e642076616c75652c20726563697069656e74206d61792068617665207265766572746564526566756e64457363726f773a2063616e206f6e6c79206465706f736974207768696c6520616374697665436f6e646974696f6e616c457363726f773a207061796565206973206e6f7420616c6c6f77656420746f207769746864726177526566756e64457363726f773a2063616e206f6e6c7920636c6f7365207768696c65206163746976655365636f6e646172793a206e6577207072696d61727920697320746865207a65726f20616464726573735365636f6e646172793a2063616c6c6572206973206e6f7420746865207072696d617279206163636f756e74526566756e64457363726f773a2063616e206f6e6c7920656e61626c6520726566756e6473207768696c6520616374697665a265627a7a723158204de02c1123bb78f2d08bfad6b58066333fecd56542eeccf477beed43e09a1dd664736f6c634300050b0032526566756e64457363726f773a2062656e656669636961727920697320746865207a65726f206164647265737360806040526100156001600160e01b0361006f16565b600080546001600160a01b0319166001600160a01b0392831617908190556040805191909216815290517f4101e71e974f68df5e9730cc223280b41654676bbb052cdcc735c3337e64d2d9916020908290030190a1610073565b3390565b610348806100826000396000f3fe608060405234801561001057600080fd5b50600436106100415760003560e01c80632348238c14610046578063beabacc81461006e578063c6dbdf61146100a4575b600080fd5b61006c6004803603602081101561005c57600080fd5b50356001600160a01b03166100c8565b005b61006c6004803603606081101561008457600080fd5b506001600160a01b038135811691602081013590911690604001356101c0565b6100ac6102aa565b604080516001600160a01b039092168252519081900360200190f35b6000546001600160a01b03166100dc6102b9565b6001600160a01b0316146101215760405162461bcd60e51b815260040180806020018281038252602c8152602001806102e8602c913960400191505060405180910390fd5b6001600160a01b0381166101665760405162461bcd60e51b815260040180806020018281038252602a8152602001806102be602a913960400191505060405180910390fd5b600080546001600160a01b0319166001600160a01b03838116919091179182905560408051929091168252517f4101e71e974f68df5e9730cc223280b41654676bbb052cdcc735c3337e64d2d9916020908290030190a150565b6000546001600160a01b03166101d46102b9565b6001600160a01b0316146102195760405162461bcd60e51b815260040180806020018281038252602c8152602001806102e8602c913960400191505060405180910390fd5b826001600160a01b031663a9059cbb83836040518363ffffffff1660e01b815260040180836001600160a01b03166001600160a01b0316815260200182815260200192505050602060405180830381600087803b15801561027957600080fd5b505af115801561028d573d6000803e3d6000fd5b505050506040513d60208110156102a357600080fd5b5050505050565b6000546001600160a01b031690565b339056fe5365636f6e646172793a206e6577207072696d61727920697320746865207a65726f20616464726573735365636f6e646172793a2063616c6c6572206973206e6f7420746865207072696d617279206163636f756e74a265627a7a723158204059e9f1f2c082d2680a9777ecceec47bdced87154f02abe5a9d7c38f34bd49364736f6c634300050b003254696d656443726f776473616c653a206f70656e696e672074696d65206973206265666f72652063757272656e742074696d65416c6c6f77616e636543726f776473616c653a20746f6b656e2077616c6c657420697320746865207a65726f206164647265737354696d656443726f776473616c653a206f70656e696e672074696d65206973206e6f74206265666f726520636c6f73696e672074696d6543726f776473616c653a20746f6b656e20697320746865207a65726f206164647265737343726f776473616c653a2077616c6c657420697320746865207a65726f2061646472657373",
    "sourcePath": "c:/Users/Kahan Majmudar/OneDrive/Study/BlockChain BTP/Node js files/ICO/ico.sol",
    "compiler": {
        "name": "solc",
        "version": "0.5.11+commit.c082d0b4"
    },
    "functionHashes": {
        "balanceOf(address)": "70a08231",
        "buyTokens(address)": "ec8ac4d8",
        "cap()": "355274ea",
        "capReached()": "4f935945",
        "changeRound()": "dd506e09",
        "claimRefund(address)": "bffa55d5",
        "closingTime()": "4b6753bc",
        "finalize()": "4bb278f3",
        "finalized()": "b3f05b97",
        "goal()": "40193883",
        "goalReached()": "7d3d6522",
        "hasClosed()": "1515bc2b",
        "isOpen()": "47535d7b",
        "isOwner()": "8f32d59b",
        "openingTime()": "b7a8807c",
        "owner()": "8da5cb5b",
        "rate()": "2c4e722e",
        "remainingTokens()": "bf583903",
        "renounceOwnership()": "715018a6",
        "token()": "fc0c546a",
        "tokenWallet()": "bff99c6c",
        "transferOwnership(address)": "f2fde38b",
        "wallet()": "521eb273",
        "weiRaised()": "4042b66f",
        "withdrawTokens(address)": "49df728c"
    },
    "gasEstimates": {
        "creation": {
            "codeDepositCost": "1211800",
            "executionCost": "infinite",
            "totalCost": "infinite"
        },
        "external": {
            "": "infinite",
            "balanceOf(address)": "675",
            "buyTokens(address)": "infinite",
            "cap()": "466",
            "capReached()": "737",
            "changeRound()": "infinite",
            "claimRefund(address)": "infinite",
            "closingTime()": "443",
            "finalize()": "infinite",
            "finalized()": "521",
            "goal()": "488",
            "goalReached()": "693",
            "hasClosed()": "433",
            "isOpen()": "787",
            "isOwner()": "569",
            "openingTime()": "531",
            "owner()": "504",
            "rate()": "444",
            "remainingTokens()": "infinite",
            "renounceOwnership()": "infinite",
            "token()": "547",
            "tokenWallet()": "504",
            "transferOwnership(address)": "infinite",
            "wallet()": "548",
            "weiRaised()": "510",
            "withdrawTokens(address)": "infinite"
        },
        "internal": {
            "_getTokenAmount(uint256)": "infinite",
            "applyBonus()": "infinite"
        }
    }
}