{
    "contractName": "MyToken",
    "abi": [
        {
            "constant": true,
            "inputs": [],
            "name": "name",
            "outputs": [
                {
                    "internalType": "string",
                    "name": "",
                    "type": "string"
                }
            ],
            "payable": false,
            "stateMutability": "view",
            "type": "function"
        },
        {
            "constant": false,
            "inputs": [
                {
                    "internalType": "address",
                    "name": "spender",
                    "type": "address"
                },
                {
                    "internalType": "uint256",
                    "name": "value",
                    "type": "uint256"
                }
            ],
            "name": "approve",
            "outputs": [
                {
                    "internalType": "bool",
                    "name": "",
                    "type": "bool"
                }
            ],
            "payable": false,
            "stateMutability": "nonpayable",
            "type": "function"
        },
        {
            "constant": true,
            "inputs": [],
            "name": "totalSupply",
            "outputs": [
                {
                    "internalType": "uint256",
                    "name": "",
                    "type": "uint256"
                }
            ],
            "payable": false,
            "stateMutability": "view",
            "type": "function"
        },
        {
            "constant": false,
            "inputs": [
                {
                    "internalType": "address",
                    "name": "from",
                    "type": "address"
                },
                {
                    "internalType": "address",
                    "name": "to",
                    "type": "address"
                },
                {
                    "internalType": "uint256",
                    "name": "value",
                    "type": "uint256"
                }
            ],
            "name": "transferFrom",
            "outputs": [
                {
                    "internalType": "bool",
                    "name": "",
                    "type": "bool"
                }
            ],
            "payable": false,
            "stateMutability": "nonpayable",
            "type": "function"
        },
        {
            "constant": true,
            "inputs": [],
            "name": "decimals",
            "outputs": [
                {
                    "internalType": "uint8",
                    "name": "",
                    "type": "uint8"
                }
            ],
            "payable": false,
            "stateMutability": "view",
            "type": "function"
        },
        {
            "constant": false,
            "inputs": [
                {
                    "internalType": "address",
                    "name": "spender",
                    "type": "address"
                },
                {
                    "internalType": "uint256",
                    "name": "addedValue",
                    "type": "uint256"
                }
            ],
            "name": "increaseAllowance",
            "outputs": [
                {
                    "internalType": "bool",
                    "name": "",
                    "type": "bool"
                }
            ],
            "payable": false,
            "stateMutability": "nonpayable",
            "type": "function"
        },
        {
            "constant": false,
            "inputs": [],
            "name": "unpause",
            "outputs": [],
            "payable": false,
            "stateMutability": "nonpayable",
            "type": "function"
        },
        {
            "constant": true,
            "inputs": [
                {
                    "internalType": "address",
                    "name": "account",
                    "type": "address"
                }
            ],
            "name": "isPauser",
            "outputs": [
                {
                    "internalType": "bool",
                    "name": "",
                    "type": "bool"
                }
            ],
            "payable": false,
            "stateMutability": "view",
            "type": "function"
        },
        {
            "constant": true,
            "inputs": [],
            "name": "paused",
            "outputs": [
                {
                    "internalType": "bool",
                    "name": "",
                    "type": "bool"
                }
            ],
            "payable": false,
            "stateMutability": "view",
            "type": "function"
        },
        {
            "constant": false,
            "inputs": [],
            "name": "renouncePauser",
            "outputs": [],
            "payable": false,
            "stateMutability": "nonpayable",
            "type": "function"
        },
        {
            "constant": true,
            "inputs": [
                {
                    "internalType": "address",
                    "name": "account",
                    "type": "address"
                }
            ],
            "name": "balanceOf",
            "outputs": [
                {
                    "internalType": "uint256",
                    "name": "",
                    "type": "uint256"
                }
            ],
            "payable": false,
            "stateMutability": "view",
            "type": "function"
        },
        {
            "constant": false,
            "inputs": [
                {
                    "internalType": "address",
                    "name": "account",
                    "type": "address"
                }
            ],
            "name": "addPauser",
            "outputs": [],
            "payable": false,
            "stateMutability": "nonpayable",
            "type": "function"
        },
        {
            "constant": false,
            "inputs": [],
            "name": "pause",
            "outputs": [],
            "payable": false,
            "stateMutability": "nonpayable",
            "type": "function"
        },
        {
            "constant": true,
            "inputs": [],
            "name": "symbol",
            "outputs": [
                {
                    "internalType": "string",
                    "name": "",
                    "type": "string"
                }
            ],
            "payable": false,
            "stateMutability": "view",
            "type": "function"
        },
        {
            "constant": false,
            "inputs": [
                {
                    "internalType": "address",
                    "name": "spender",
                    "type": "address"
                },
                {
                    "internalType": "uint256",
                    "name": "subtractedValue",
                    "type": "uint256"
                }
            ],
            "name": "decreaseAllowance",
            "outputs": [
                {
                    "internalType": "bool",
                    "name": "",
                    "type": "bool"
                }
            ],
            "payable": false,
            "stateMutability": "nonpayable",
            "type": "function"
        },
        {
            "constant": false,
            "inputs": [
                {
                    "internalType": "address",
                    "name": "to",
                    "type": "address"
                },
                {
                    "internalType": "uint256",
                    "name": "value",
                    "type": "uint256"
                }
            ],
            "name": "transfer",
            "outputs": [
                {
                    "internalType": "bool",
                    "name": "",
                    "type": "bool"
                }
            ],
            "payable": false,
            "stateMutability": "nonpayable",
            "type": "function"
        },
        {
            "constant": true,
            "inputs": [
                {
                    "internalType": "address",
                    "name": "owner",
                    "type": "address"
                },
                {
                    "internalType": "address",
                    "name": "spender",
                    "type": "address"
                }
            ],
            "name": "allowance",
            "outputs": [
                {
                    "internalType": "uint256",
                    "name": "",
                    "type": "uint256"
                }
            ],
            "payable": false,
            "stateMutability": "view",
            "type": "function"
        },
        {
            "inputs": [
                {
                    "internalType": "string",
                    "name": "name",
                    "type": "string"
                },
                {
                    "internalType": "string",
                    "name": "symbol",
                    "type": "string"
                },
                {
                    "internalType": "uint8",
                    "name": "decimals",
                    "type": "uint8"
                },
                {
                    "internalType": "uint256",
                    "name": "ICO_SUPP",
                    "type": "uint256"
                }
            ],
            "payable": false,
            "stateMutability": "nonpayable",
            "type": "constructor"
        },
        {
            "anonymous": false,
            "inputs": [
                {
                    "indexed": false,
                    "internalType": "address",
                    "name": "account",
                    "type": "address"
                }
            ],
            "name": "Paused",
            "type": "event"
        },
        {
            "anonymous": false,
            "inputs": [
                {
                    "indexed": false,
                    "internalType": "address",
                    "name": "account",
                    "type": "address"
                }
            ],
            "name": "Unpaused",
            "type": "event"
        },
        {
            "anonymous": false,
            "inputs": [
                {
                    "indexed": true,
                    "internalType": "address",
                    "name": "account",
                    "type": "address"
                }
            ],
            "name": "PauserAdded",
            "type": "event"
        },
        {
            "anonymous": false,
            "inputs": [
                {
                    "indexed": true,
                    "internalType": "address",
                    "name": "account",
                    "type": "address"
                }
            ],
            "name": "PauserRemoved",
            "type": "event"
        },
        {
            "anonymous": false,
            "inputs": [
                {
                    "indexed": true,
                    "internalType": "address",
                    "name": "from",
                    "type": "address"
                },
                {
                    "indexed": true,
                    "internalType": "address",
                    "name": "to",
                    "type": "address"
                },
                {
                    "indexed": false,
                    "internalType": "uint256",
                    "name": "value",
                    "type": "uint256"
                }
            ],
            "name": "Transfer",
            "type": "event"
        },
        {
            "anonymous": false,
            "inputs": [
                {
                    "indexed": true,
                    "internalType": "address",
                    "name": "owner",
                    "type": "address"
                },
                {
                    "indexed": true,
                    "internalType": "address",
                    "name": "spender",
                    "type": "address"
                },
                {
                    "indexed": false,
                    "internalType": "uint256",
                    "name": "value",
                    "type": "uint256"
                }
            ],
            "name": "Approval",
            "type": "event"
        }
    ],
    "bytecode": "60806040523480156200001157600080fd5b506040516200174038038062001740833981810160405260808110156200003757600080fd5b81019080805160405193929190846401000000008211156200005857600080fd5b9083019060208201858111156200006e57600080fd5b82516401000000008111828201881017156200008957600080fd5b82525081516020918201929091019080838360005b83811015620000b85781810151838201526020016200009e565b50505050905090810190601f168015620000e65780820380516001836020036101000a031916815260200191505b50604052602001805160405193929190846401000000008211156200010a57600080fd5b9083019060208201858111156200012057600080fd5b82516401000000008111828201881017156200013b57600080fd5b82525081516020918201929091019080838360005b838110156200016a57818101518382015260200162000150565b50505050905090810190601f168015620001985780820380516001836020036101000a031916815260200191505b506040908152602082810151929091015186519294509250859185918591620001c8916003919086019062000554565b508151620001de90600490602085019062000554565b506005805460ff191660ff9290921691909117905550620002139050620002046200023c565b6001600160e01b036200024116565b6007805460ff191690556200023233826001600160e01b036200029316565b50505050620005f6565b335b90565b6200025c816006620003ae60201b62000eee1790919060201c565b6040516001600160a01b038216907f6719d08c1888103bea251a4ed56406bd0c3e69723c8a1686e017e7bbe159b6f890600090a250565b6001600160a01b0382166200030957604080517f08c379a000000000000000000000000000000000000000000000000000000000815260206004820152601f60248201527f45524332303a206d696e7420746f20746865207a65726f206164647265737300604482015290519081900360640190fd5b62000325816002546200045560201b62000e2d1790919060201c565b6002556001600160a01b038216600090815260208181526040909120546200035891839062000e2d62000455821b17901c565b6001600160a01b0383166000818152602081815260408083209490945583518581529351929391927fddf252ad1be2c89b69c2b068fc378daa952ba7f163c4a11628f55a4df523b3ef9281900390910190a35050565b620003c382826001600160e01b03620004d116565b156200043057604080517f08c379a000000000000000000000000000000000000000000000000000000000815260206004820152601f60248201527f526f6c65733a206163636f756e7420616c72656164792068617320726f6c6500604482015290519081900360640190fd5b6001600160a01b0316600090815260209190915260409020805460ff19166001179055565b600082820183811015620004ca57604080517f08c379a000000000000000000000000000000000000000000000000000000000815260206004820152601b60248201527f536166654d6174683a206164646974696f6e206f766572666c6f770000000000604482015290519081900360640190fd5b9392505050565b60006001600160a01b03821662000534576040517f08c379a00000000000000000000000000000000000000000000000000000000081526004018080602001828103825260228152602001806200171e6022913960400191505060405180910390fd5b506001600160a01b03166000908152602091909152604090205460ff1690565b828054600181600116156101000203166002900490600052602060002090601f016020900481019282601f106200059757805160ff1916838001178555620005c7565b82800160010185558215620005c7579182015b82811115620005c7578251825591602001919060010190620005aa565b50620005d5929150620005d9565b5090565b6200023e91905b80821115620005d55760008155600101620005e0565b61111880620006066000396000f3fe608060405234801561001057600080fd5b506004361061010b5760003560e01c80635c975abb116100a25780638456cb59116100715780638456cb59146102f357806395d89b41146102fb578063a457c2d714610303578063a9059cbb1461032f578063dd62ed3e1461035b5761010b565b80635c975abb146102975780636ef8d66d1461029f57806370a08231146102a757806382dc1ec4146102cd5761010b565b8063313ce567116100de578063313ce5671461021d578063395093511461023b5780633f4ba83a1461026757806346fbf68e146102715761010b565b806306fdde0314610110578063095ea7b31461018d57806318160ddd146101cd57806323b872dd146101e7575b600080fd5b610118610389565b6040805160208082528351818301528351919283929083019185019080838360005b8381101561015257818101518382015260200161013a565b50505050905090810190601f16801561017f5780820380516001836020036101000a031916815260200191505b509250505060405180910390f35b6101b9600480360360408110156101a357600080fd5b506001600160a01b03813516906020013561041f565b604080519115158252519081900360200190f35b6101d561047e565b60408051918252519081900360200190f35b6101b9600480360360608110156101fd57600080fd5b506001600160a01b03813581169160208101359091169060400135610484565b6102256104e5565b6040805160ff9092168252519081900360200190f35b6101b96004803603604081101561025157600080fd5b506001600160a01b0381351690602001356104ee565b61026f610546565b005b6101b96004803603602081101561028757600080fd5b50356001600160a01b031661062f565b6101b9610648565b61026f610651565b6101d5600480360360208110156102bd57600080fd5b50356001600160a01b0316610663565b61026f600480360360208110156102e357600080fd5b50356001600160a01b031661067e565b61026f6106d0565b610118610797565b6101b96004803603604081101561031957600080fd5b506001600160a01b0381351690602001356107f8565b6101b96004803603604081101561034557600080fd5b506001600160a01b038135169060200135610850565b6101d56004803603604081101561037157600080fd5b506001600160a01b03813581169160200135166108a8565b60038054604080516020601f60026000196101006001881615020190951694909404938401819004810282018101909252828152606093909290918301828280156104155780601f106103ea57610100808354040283529160200191610415565b820191906000526020600020905b8154815290600101906020018083116103f857829003601f168201915b5050505050905090565b60075460009060ff161561046d576040805162461bcd60e51b815260206004820152601060248201526f14185d5cd8589b194e881c185d5cd95960821b604482015290519081900360640190fd5b61047783836108d3565b9392505050565b60025490565b60075460009060ff16156104d2576040805162461bcd60e51b815260206004820152601060248201526f14185d5cd8589b194e881c185d5cd95960821b604482015290519081900360640190fd5b6104dd8484846108f0565b949350505050565b60055460ff1690565b60075460009060ff161561053c576040805162461bcd60e51b815260206004820152601060248201526f14185d5cd8589b194e881c185d5cd95960821b604482015290519081900360640190fd5b610477838361097d565b6105566105516109d1565b61062f565b6105915760405162461bcd60e51b8152600401808060200182810382526030815260200180610f936030913960400191505060405180910390fd5b60075460ff166105df576040805162461bcd60e51b815260206004820152601460248201527314185d5cd8589b194e881b9bdd081c185d5cd95960621b604482015290519081900360640190fd5b6007805460ff191690557f5db9ee0a495bf2e6ff9c91a7834c1ba4fdd244a5e8aa4e537bd38aeae4b073aa6106126109d1565b604080516001600160a01b039092168252519081900360200190a1565b600061064260068363ffffffff6109d516565b92915050565b60075460ff1690565b61066161065c6109d1565b610a3c565b565b6001600160a01b031660009081526020819052604090205490565b6106896105516109d1565b6106c45760405162461bcd60e51b8152600401808060200182810382526030815260200180610f936030913960400191505060405180910390fd5b6106cd81610a84565b50565b6106db6105516109d1565b6107165760405162461bcd60e51b8152600401808060200182810382526030815260200180610f936030913960400191505060405180910390fd5b60075460ff1615610761576040805162461bcd60e51b815260206004820152601060248201526f14185d5cd8589b194e881c185d5cd95960821b604482015290519081900360640190fd5b6007805460ff191660011790557f62e78cea01bee320cd4e420270b5ea74000d11b0c9f74754ebdbfc544b05a2586106126109d1565b60048054604080516020601f60026000196101006001881615020190951694909404938401819004810282018101909252828152606093909290918301828280156104155780601f106103ea57610100808354040283529160200191610415565b60075460009060ff1615610846576040805162461bcd60e51b815260206004820152601060248201526f14185d5cd8589b194e881c185d5cd95960821b604482015290519081900360640190fd5b6104778383610acc565b60075460009060ff161561089e576040805162461bcd60e51b815260206004820152601060248201526f14185d5cd8589b194e881c185d5cd95960821b604482015290519081900360640190fd5b6104778383610b3a565b6001600160a01b03918216600090815260016020908152604080832093909416825291909152205490565b60006108e76108e06109d1565b8484610b4e565b50600192915050565b60006108fd848484610c3a565b610973846109096109d1565b61096e8560405180606001604052806028815260200161102c602891396001600160a01b038a166000908152600160205260408120906109476109d1565b6001600160a01b03168152602081019190915260400160002054919063ffffffff610d9616565b610b4e565b5060019392505050565b60006108e761098a6109d1565b8461096e856001600061099b6109d1565b6001600160a01b03908116825260208083019390935260409182016000908120918c16815292529020549063ffffffff610e2d16565b3390565b60006001600160a01b038216610a1c5760405162461bcd60e51b81526004018080602001828103825260228152602001806110546022913960400191505060405180910390fd5b506001600160a01b03166000908152602091909152604090205460ff1690565b610a4d60068263ffffffff610e8716565b6040516001600160a01b038216907fcd265ebaf09df2871cc7bd4133404a235ba12eff2041bb89d9c714a2621c7c7e90600090a250565b610a9560068263ffffffff610eee16565b6040516001600160a01b038216907f6719d08c1888103bea251a4ed56406bd0c3e69723c8a1686e017e7bbe159b6f890600090a250565b60006108e7610ad96109d1565b8461096e856040518060600160405280602581526020016110bf6025913960016000610b036109d1565b6001600160a01b03908116825260208083019390935260409182016000908120918d1681529252902054919063ffffffff610d9616565b60006108e7610b476109d1565b8484610c3a565b6001600160a01b038316610b935760405162461bcd60e51b815260040180806020018281038252602481526020018061109b6024913960400191505060405180910390fd5b6001600160a01b038216610bd85760405162461bcd60e51b8152600401808060200182810382526022815260200180610fc36022913960400191505060405180910390fd5b6001600160a01b03808416600081815260016020908152604080832094871680845294825291829020859055815185815291517f8c5be1e5ebec7d5bd14f71427d1e84f3dd0314c0f7b2291e5b200ac8c7c3b9259281900390910190a3505050565b6001600160a01b038316610c7f5760405162461bcd60e51b81526004018080602001828103825260258152602001806110766025913960400191505060405180910390fd5b6001600160a01b038216610cc45760405162461bcd60e51b8152600401808060200182810382526023815260200180610f706023913960400191505060405180910390fd5b610d0781604051806060016040528060268152602001610fe5602691396001600160a01b038616600090815260208190526040902054919063ffffffff610d9616565b6001600160a01b038085166000908152602081905260408082209390935590841681522054610d3c908263ffffffff610e2d16565b6001600160a01b038084166000818152602081815260409182902094909455805185815290519193928716927fddf252ad1be2c89b69c2b068fc378daa952ba7f163c4a11628f55a4df523b3ef92918290030190a3505050565b60008184841115610e255760405162461bcd60e51b81526004018080602001828103825283818151815260200191508051906020019080838360005b83811015610dea578181015183820152602001610dd2565b50505050905090810190601f168015610e175780820380516001836020036101000a031916815260200191505b509250505060405180910390fd5b505050900390565b600082820183811015610477576040805162461bcd60e51b815260206004820152601b60248201527f536166654d6174683a206164646974696f6e206f766572666c6f770000000000604482015290519081900360640190fd5b610e9182826109d5565b610ecc5760405162461bcd60e51b815260040180806020018281038252602181526020018061100b6021913960400191505060405180910390fd5b6001600160a01b0316600090815260209190915260409020805460ff19169055565b610ef882826109d5565b15610f4a576040805162461bcd60e51b815260206004820152601f60248201527f526f6c65733a206163636f756e7420616c72656164792068617320726f6c6500604482015290519081900360640190fd5b6001600160a01b0316600090815260209190915260409020805460ff1916600117905556fe45524332303a207472616e7366657220746f20746865207a65726f2061646472657373506175736572526f6c653a2063616c6c657220646f6573206e6f742068617665207468652050617573657220726f6c6545524332303a20617070726f766520746f20746865207a65726f206164647265737345524332303a207472616e7366657220616d6f756e7420657863656564732062616c616e6365526f6c65733a206163636f756e7420646f6573206e6f74206861766520726f6c6545524332303a207472616e7366657220616d6f756e74206578636565647320616c6c6f77616e6365526f6c65733a206163636f756e7420697320746865207a65726f206164647265737345524332303a207472616e736665722066726f6d20746865207a65726f206164647265737345524332303a20617070726f76652066726f6d20746865207a65726f206164647265737345524332303a2064656372656173656420616c6c6f77616e63652062656c6f77207a65726fa265627a7a7231582060596db8b2a68fe25f1930202e6bd35f2ba1a6a797e4c1ca017943e8f26fd78064736f6c634300050b0032526f6c65733a206163636f756e7420697320746865207a65726f2061646472657373",
    "sourcePath": "c:/Users/Kahan Majmudar/OneDrive/Study/BlockChain BTP/Node js files/ICO/ico.sol",
    "compiler": {
        "name": "solc",
        "version": "0.5.11+commit.c082d0b4"
    },
    "functionHashes": {
        "addPauser(address)": "82dc1ec4",
        "allowance(address,address)": "dd62ed3e",
        "approve(address,uint256)": "095ea7b3",
        "balanceOf(address)": "70a08231",
        "decimals()": "313ce567",
        "decreaseAllowance(address,uint256)": "a457c2d7",
        "increaseAllowance(address,uint256)": "39509351",
        "isPauser(address)": "46fbf68e",
        "name()": "06fdde03",
        "pause()": "8456cb59",
        "paused()": "5c975abb",
        "renouncePauser()": "6ef8d66d",
        "symbol()": "95d89b41",
        "totalSupply()": "18160ddd",
        "transfer(address,uint256)": "a9059cbb",
        "transferFrom(address,address,uint256)": "23b872dd",
        "unpause()": "3f4ba83a"
    },
    "gasEstimates": {
        "creation": {
            "codeDepositCost": "875200",
            "executionCost": "infinite",
            "totalCost": "infinite"
        },
        "external": {
            "addPauser(address)": "infinite",
            "allowance(address,address)": "760",
            "approve(address,uint256)": "infinite",
            "balanceOf(address)": "612",
            "decimals()": "436",
            "decreaseAllowance(address,uint256)": "infinite",
            "increaseAllowance(address,uint256)": "infinite",
            "isPauser(address)": "infinite",
            "name()": "infinite",
            "pause()": "infinite",
            "paused()": "433",
            "renouncePauser()": "infinite",
            "symbol()": "infinite",
            "totalSupply()": "466",
            "transfer(address,uint256)": "infinite",
            "transferFrom(address,address,uint256)": "infinite",
            "unpause()": "infinite"
        }
    }
}