{
  "contractName": "OracleTest",
  "abi": [
    {
      "inputs": [],
      "stateMutability": "payable",
      "type": "constructor",
      "payable": true
    },
    {
      "anonymous": false,
      "inputs": [
        {
          "indexed": false,
          "internalType": "string",
          "name": "message",
          "type": "string"
        }
      ],
      "name": "LogConstructorInitiated",
      "type": "event"
    },
    {
      "anonymous": false,
      "inputs": [
        {
          "indexed": false,
          "internalType": "string",
          "name": "description",
          "type": "string"
        }
      ],
      "name": "LogNewProvableQuery",
      "type": "event"
    },
    {
      "anonymous": false,
      "inputs": [
        {
          "indexed": false,
          "internalType": "bytes32",
          "name": "queryID",
          "type": "bytes32"
        }
      ],
      "name": "LogQueryId",
      "type": "event"
    },
    {
      "inputs": [],
      "name": "btcPrice",
      "outputs": [
        {
          "internalType": "uint256",
          "name": "",
          "type": "uint256"
        }
      ],
      "stateMutability": "view",
      "type": "function",
      "constant": true
    },
    {
      "inputs": [],
      "name": "ethPrice",
      "outputs": [
        {
          "internalType": "uint256",
          "name": "",
          "type": "uint256"
        }
      ],
      "stateMutability": "view",
      "type": "function",
      "constant": true
    },
    {
      "inputs": [],
      "name": "randomNumber",
      "outputs": [
        {
          "internalType": "uint256",
          "name": "",
          "type": "uint256"
        }
      ],
      "stateMutability": "view",
      "type": "function",
      "constant": true
    },
    {
      "inputs": [
        {
          "internalType": "bytes32",
          "name": "_myId",
          "type": "bytes32"
        },
        {
          "internalType": "string",
          "name": "_result",
          "type": "string"
        }
      ],
      "name": "__callback",
      "outputs": [],
      "stateMutability": "nonpayable",
      "type": "function"
    },
    {
      "inputs": [
        {
          "internalType": "bytes32",
          "name": "_myid",
          "type": "bytes32"
        },
        {
          "internalType": "string",
          "name": "_result",
          "type": "string"
        },
        {
          "internalType": "bytes",
          "name": "_proof",
          "type": "bytes"
        }
      ],
      "name": "__callback",
      "outputs": [],
      "stateMutability": "nonpayable",
      "type": "function"
    },
    {
      "inputs": [],
      "name": "getRandomNumber",
      "outputs": [],
      "stateMutability": "payable",
      "type": "function",
      "payable": true
    },
    {
      "inputs": [],
      "name": "getEthPrice",
      "outputs": [],
      "stateMutability": "payable",
      "type": "function",
      "payable": true
    },
    {
      "inputs": [],
      "name": "getBtcPrice",
      "outputs": [],
      "stateMutability": "payable",
      "type": "function",
      "payable": true
    }
  ],
  "bytecode": "0x60806040527f11a3fca63f87bd67d7f9f72b744acc8be2193705e7a734ac3a773d35d259e87b60405180806020018281038252603c815260200180612aa2603c913960400191505060405180910390a1612a448061005e6000396000f3fe608060405260043610610098576000357c010000000000000000000000000000000000000000000000000000000090048063a8ad52d11161006b578063a8ad52d1146102ec578063ccbac9f514610317578063dbdff2c114610342578063ff186b2e1461034c57610098565b806327dc297e1461009d57806338bbfa501461016f5780633a3610bc146102d857806367c9b017146102e2575b600080fd5b3480156100a957600080fd5b5061016d600480360360408110156100c057600080fd5b8101908080359060200190929190803590602001906401000000008111156100e757600080fd5b8201836020820111156100f957600080fd5b8035906020019184600183028401116401000000008311171561011b57600080fd5b91908080601f016020809104026020016040519081016040528093929190818152602001838380828437600081840152601f19601f820116905080830192505050505050509192919290505050610377565b005b34801561017b57600080fd5b506102d66004803603606081101561019257600080fd5b8101908080359060200190929190803590602001906401000000008111156101b957600080fd5b8201836020820111156101cb57600080fd5b803590602001918460018302840111640100000000831117156101ed57600080fd5b91908080601f016020809104026020016040519081016040528093929190818152602001838380828437600081840152601f19601f8201169050808301925050505050505091929192908035906020019064010000000081111561025057600080fd5b82018360208201111561026257600080fd5b8035906020019184600183028401116401000000008311171561028457600080fd5b91908080601f016020809104026020016040519081016040528093929190818152602001838380828437600081840152601f19601f82011690508083019250505050505050919291929050505061055a565b005b6102e061057e565b005b6102ea610790565b005b3480156102f857600080fd5b506103016109a3565b6040518082815260200191505060405180910390f35b34801561032357600080fd5b5061032c6109a9565b6040518082815260200191505060405180910390f35b61034a6109af565b005b34801561035857600080fd5b50610361610bdc565b6040518082815260200191505060405180910390f35b61037f610be2565b73ffffffffffffffffffffffffffffffffffffffff163373ffffffffffffffffffffffffffffffffffffffff16146103b657600080fd5b6009600083815260200190815260200160002060009054906101000a900460ff166103e057600080fd5b6103e8612746565b600860008481526020019081526020016000206040518060200160405290816000820160009054906101000a900460ff16600281111561042457fe5b600281111561042f57fe5b8152505090506000600281111561044257fe5b8160000151600281111561045257fe5b14156104945761046182610f55565b60058190555060006009600085815260200190815260200160002060006101000a81548160ff0219169083151502179055505b600160028111156104a157fe5b816000015160028111156104b157fe5b14156104f5576104c2826002610f69565b60068190555060006009600085815260200190815260200160002060006101000a81548160ff0219169083151502179055505b60028081111561050157fe5b8160000151600281111561051157fe5b141561055557610522826002610f69565b60078190555060006009600085815260200190815260200160002060006101000a81548160ff0219169083151502179055505b505050565b60006001026003600080600102815260200190815260200160002081905550505050565b3073ffffffffffffffffffffffffffffffffffffffff16316105d46040518060400160405280600381526020017f55524c00000000000000000000000000000000000000000000000000000000008152506111f8565b111561062a577fc4dc360d0a9c0677a3379ae0a3d81e887f761e65fdf3d7e00859d1bcd3c4738960405180806020018281038252604b81526020018061283f604b913960600191505060405180910390a161078e565b7fc4dc360d0a9c0677a3379ae0a3d81e887f761e65fdf3d7e00859d1bcd3c4738960405180806020018281038252603581526020018061280a6035913960400191505060405180910390a160006106ce6040518060400160405280600381526020017f55524c000000000000000000000000000000000000000000000000000000000081525060405180606001604052806040815260200161294e604091396115dd565b905060016009600083815260200190815260200160002060006101000a81548160ff021916908315150217905550604051806020016040528060028081111561071357fe5b8152506008600083815260200190815260200160002060008201518160000160006101000a81548160ff0219169083600281111561074d57fe5b02179055509050507fba5c08e7ca16d504b0119b4b9e09b27a571d73bf338d327cfbbe54b0b55ff88d816040518082815260200191505060405180910390a1505b565b3073ffffffffffffffffffffffffffffffffffffffff16316107e66040518060400160405280600381526020017f55524c00000000000000000000000000000000000000000000000000000000008152506111f8565b111561083c577fc4dc360d0a9c0677a3379ae0a3d81e887f761e65fdf3d7e00859d1bcd3c4738960405180806020018281038252604b81526020018061283f604b913960600191505060405180910390a16109a1565b7fc4dc360d0a9c0677a3379ae0a3d81e887f761e65fdf3d7e00859d1bcd3c4738960405180806020018281038252603581526020018061280a6035913960400191505060405180910390a160006108e06040518060400160405280600381526020017f55524c00000000000000000000000000000000000000000000000000000000008152506040518060600160405280604081526020016129cf604091396115dd565b905060016009600083815260200190815260200160002060006101000a81548160ff02191690831515021790555060405180602001604052806001600281111561092657fe5b8152506008600083815260200190815260200160002060008201518160000160006101000a81548160ff0219169083600281111561096057fe5b02179055509050507fba5c08e7ca16d504b0119b4b9e09b27a571d73bf338d327cfbbe54b0b55ff88d816040518082815260200191505060405180910390a1505b565b60075481565b60055481565b3073ffffffffffffffffffffffffffffffffffffffff1631610a056040518060400160405280600381526020017f55524c00000000000000000000000000000000000000000000000000000000008152506111f8565b1115610a5b577fc4dc360d0a9c0677a3379ae0a3d81e887f761e65fdf3d7e00859d1bcd3c4738960405180806020018281038252604b81526020018061283f604b913960600191505060405180910390a1610bda565b7fc4dc360d0a9c0677a3379ae0a3d81e887f761e65fdf3d7e00859d1bcd3c4738960405180806020018281038252603581526020018061280a6035913960400191505060405180910390a16000610b196040518060400160405280600381526020017f55524c000000000000000000000000000000000000000000000000000000000081525060405180608001604052806041815260200161298e6041913960405180610100016040528060c4815260200161288a60c49139611b94565b905060016009600083815260200190815260200160002060006101000a81548160ff021916908315150217905550604051806020016040528060006002811115610b5f57fe5b8152506008600083815260200190815260200160002060008201518160000160006101000a81548160ff02191690836002811115610b9957fe5b02179055509050507fba5c08e7ca16d504b0119b4b9e09b27a571d73bf338d327cfbbe54b0b55ff88d816040518082815260200191505060405180910390a1505b565b60065481565b60008073ffffffffffffffffffffffffffffffffffffffff16600160009054906101000a900473ffffffffffffffffffffffffffffffffffffffff1673ffffffffffffffffffffffffffffffffffffffff161480610c6a57506000610c68600160009054906101000a900473ffffffffffffffffffffffffffffffffffffffff166121b9565b145b15610c7b57610c7960006121c4565b505b600160009054906101000a900473ffffffffffffffffffffffffffffffffffffffff1673ffffffffffffffffffffffffffffffffffffffff166338cc48316040518163ffffffff167c0100000000000000000000000000000000000000000000000000000000028152600401602060405180830381600087803b158015610d0157600080fd5b505af1158015610d15573d6000803e3d6000fd5b505050506040513d6020811015610d2b57600080fd5b810190808051906020019092919050505073ffffffffffffffffffffffffffffffffffffffff166000809054906101000a900473ffffffffffffffffffffffffffffffffffffffff1673ffffffffffffffffffffffffffffffffffffffff1614610e9057600160009054906101000a900473ffffffffffffffffffffffffffffffffffffffff1673ffffffffffffffffffffffffffffffffffffffff166338cc48316040518163ffffffff167c0100000000000000000000000000000000000000000000000000000000028152600401602060405180830381600087803b158015610e1557600080fd5b505af1158015610e29573d6000803e3d6000fd5b505050506040513d6020811015610e3f57600080fd5b81019080805190602001909291905050506000806101000a81548173ffffffffffffffffffffffffffffffffffffffff021916908373ffffffffffffffffffffffffffffffffffffffff1602179055505b6000809054906101000a900473ffffffffffffffffffffffffffffffffffffffff1673ffffffffffffffffffffffffffffffffffffffff1663c281d19e6040518163ffffffff167c0100000000000000000000000000000000000000000000000000000000028152600401602060405180830381600087803b158015610f1557600080fd5b505af1158015610f29573d6000803e3d6000fd5b505050506040513d6020811015610f3f57600080fd5b8101908080519060200190929190505050905090565b6000610f62826000610f69565b9050919050565b600060608390506000809050600080905060008090505b83518110156111d9576030848281518110610f9757fe5b60200101517f010000000000000000000000000000000000000000000000000000000000000090047f0100000000000000000000000000000000000000000000000000000000000000027f0100000000000000000000000000000000000000000000000000000000000000900460ff16101580156110915750603984828151811061101e57fe5b60200101517f010000000000000000000000000000000000000000000000000000000000000090047f0100000000000000000000000000000000000000000000000000000000000000027f0100000000000000000000000000000000000000000000000000000000000000900460ff1611155b156111425781156110b45760008614156110aa576111d9565b8580600190039650505b600a8302925060308482815181106110c857fe5b60200101517f010000000000000000000000000000000000000000000000000000000000000090047f0100000000000000000000000000000000000000000000000000000000000000027f0100000000000000000000000000000000000000000000000000000000000000900460ff1603830192506111cc565b602e84828151811061115057fe5b60200101517f010000000000000000000000000000000000000000000000000000000000000090047f0100000000000000000000000000000000000000000000000000000000000000027f0100000000000000000000000000000000000000000000000000000000000000900460ff1614156111cb57600191505b5b8080600101915050610f80565b5060008511156111ec5784600a0a820291505b81935050505092915050565b60008073ffffffffffffffffffffffffffffffffffffffff16600160009054906101000a900473ffffffffffffffffffffffffffffffffffffffff1673ffffffffffffffffffffffffffffffffffffffff1614806112805750600061127e600160009054906101000a900473ffffffffffffffffffffffffffffffffffffffff166121b9565b145b156112915761128f60006121c4565b505b600160009054906101000a900473ffffffffffffffffffffffffffffffffffffffff1673ffffffffffffffffffffffffffffffffffffffff166338cc48316040518163ffffffff167c0100000000000000000000000000000000000000000000000000000000028152600401602060405180830381600087803b15801561131757600080fd5b505af115801561132b573d6000803e3d6000fd5b505050506040513d602081101561134157600080fd5b810190808051906020019092919050505073ffffffffffffffffffffffffffffffffffffffff166000809054906101000a900473ffffffffffffffffffffffffffffffffffffffff1673ffffffffffffffffffffffffffffffffffffffff16146114a657600160009054906101000a900473ffffffffffffffffffffffffffffffffffffffff1673ffffffffffffffffffffffffffffffffffffffff166338cc48316040518163ffffffff167c0100000000000000000000000000000000000000000000000000000000028152600401602060405180830381600087803b15801561142b57600080fd5b505af115801561143f573d6000803e3d6000fd5b505050506040513d602081101561145557600080fd5b81019080805190602001909291905050506000806101000a81548173ffffffffffffffffffffffffffffffffffffffff021916908373ffffffffffffffffffffffffffffffffffffffff1602179055505b6000809054906101000a900473ffffffffffffffffffffffffffffffffffffffff1673ffffffffffffffffffffffffffffffffffffffff1663524f3889836040518263ffffffff167c01000000000000000000000000000000000000000000000000000000000281526004018080602001828103825283818151815260200191508051906020019080838360005b8381101561154f578082015181840152602081019050611534565b50505050905090810190601f16801561157c5780820380516001836020036101000a031916815260200191505b5092505050602060405180830381600087803b15801561159b57600080fd5b505af11580156115af573d6000803e3d6000fd5b505050506040513d60208110156115c557600080fd5b81019080805190602001909291905050509050919050565b60008073ffffffffffffffffffffffffffffffffffffffff16600160009054906101000a900473ffffffffffffffffffffffffffffffffffffffff1673ffffffffffffffffffffffffffffffffffffffff16148061166557506000611663600160009054906101000a900473ffffffffffffffffffffffffffffffffffffffff166121b9565b145b156116765761167460006121c4565b505b600160009054906101000a900473ffffffffffffffffffffffffffffffffffffffff1673ffffffffffffffffffffffffffffffffffffffff166338cc48316040518163ffffffff167c0100000000000000000000000000000000000000000000000000000000028152600401602060405180830381600087803b1580156116fc57600080fd5b505af1158015611710573d6000803e3d6000fd5b505050506040513d602081101561172657600080fd5b810190808051906020019092919050505073ffffffffffffffffffffffffffffffffffffffff166000809054906101000a900473ffffffffffffffffffffffffffffffffffffffff1673ffffffffffffffffffffffffffffffffffffffff161461188b57600160009054906101000a900473ffffffffffffffffffffffffffffffffffffffff1673ffffffffffffffffffffffffffffffffffffffff166338cc48316040518163ffffffff167c0100000000000000000000000000000000000000000000000000000000028152600401602060405180830381600087803b15801561181057600080fd5b505af1158015611824573d6000803e3d6000fd5b505050506040513d602081101561183a57600080fd5b81019080805190602001909291905050506000806101000a81548173ffffffffffffffffffffffffffffffffffffffff021916908373ffffffffffffffffffffffffffffffffffffffff1602179055505b60008060009054906101000a900473ffffffffffffffffffffffffffffffffffffffff1673ffffffffffffffffffffffffffffffffffffffff1663524f3889856040518263ffffffff167c01000000000000000000000000000000000000000000000000000000000281526004018080602001828103825283818151815260200191508051906020019080838360005b8381101561193657808201518184015260208101905061191b565b50505050905090810190601f1680156119635780820380516001836020036101000a031916815260200191505b5092505050602060405180830381600087803b15801561198257600080fd5b505af1158015611996573d6000803e3d6000fd5b505050506040513d60208110156119ac57600080fd5b8101908080519060200190929190505050905062030d403a02670de0b6b3a7640000018111156119e3576000600102915050611b8e565b6000809054906101000a900473ffffffffffffffffffffffffffffffffffffffff1673ffffffffffffffffffffffffffffffffffffffff1663adf59f9982600087876040518563ffffffff167c0100000000000000000000000000000000000000000000000000000000028152600401808481526020018060200180602001838103835285818151815260200191508051906020019080838360005b83811015611a9a578082015181840152602081019050611a7f565b50505050905090810190601f168015611ac75780820380516001836020036101000a031916815260200191505b50838103825284818151815260200191508051906020019080838360005b83811015611b00578082015181840152602081019050611ae5565b50505050905090810190601f168015611b2d5780820380516001836020036101000a031916815260200191505b50955050505050506020604051808303818588803b158015611b4e57600080fd5b505af1158015611b62573d6000803e3d6000fd5b50505050506040513d6020811015611b7957600080fd5b81019080805190602001909291905050509150505b92915050565b60008073ffffffffffffffffffffffffffffffffffffffff16600160009054906101000a900473ffffffffffffffffffffffffffffffffffffffff1673ffffffffffffffffffffffffffffffffffffffff161480611c1c57506000611c1a600160009054906101000a900473ffffffffffffffffffffffffffffffffffffffff166121b9565b145b15611c2d57611c2b60006121c4565b505b600160009054906101000a900473ffffffffffffffffffffffffffffffffffffffff1673ffffffffffffffffffffffffffffffffffffffff166338cc48316040518163ffffffff167c0100000000000000000000000000000000000000000000000000000000028152600401602060405180830381600087803b158015611cb357600080fd5b505af1158015611cc7573d6000803e3d6000fd5b505050506040513d6020811015611cdd57600080fd5b810190808051906020019092919050505073ffffffffffffffffffffffffffffffffffffffff166000809054906101000a900473ffffffffffffffffffffffffffffffffffffffff1673ffffffffffffffffffffffffffffffffffffffff1614611e4257600160009054906101000a900473ffffffffffffffffffffffffffffffffffffffff1673ffffffffffffffffffffffffffffffffffffffff166338cc48316040518163ffffffff167c0100000000000000000000000000000000000000000000000000000000028152600401602060405180830381600087803b158015611dc757600080fd5b505af1158015611ddb573d6000803e3d6000fd5b505050506040513d6020811015611df157600080fd5b81019080805190602001909291905050506000806101000a81548173ffffffffffffffffffffffffffffffffffffffff021916908373ffffffffffffffffffffffffffffffffffffffff1602179055505b60008060009054906101000a900473ffffffffffffffffffffffffffffffffffffffff1673ffffffffffffffffffffffffffffffffffffffff1663524f3889866040518263ffffffff167c01000000000000000000000000000000000000000000000000000000000281526004018080602001828103825283818151815260200191508051906020019080838360005b83811015611eed578082015181840152602081019050611ed2565b50505050905090810190601f168015611f1a5780820380516001836020036101000a031916815260200191505b5092505050602060405180830381600087803b158015611f3957600080fd5b505af1158015611f4d573d6000803e3d6000fd5b505050506040513d6020811015611f6357600080fd5b8101908080519060200190929190505050905062030d403a02670de0b6b3a764000001811115611f9a5760006001029150506121b2565b6000809054906101000a900473ffffffffffffffffffffffffffffffffffffffff1673ffffffffffffffffffffffffffffffffffffffff1663772286598260008888886040518663ffffffff167c010000000000000000000000000000000000000000000000000000000002815260040180858152602001806020018060200180602001848103845287818151815260200191508051906020019080838360005b8381101561205657808201518184015260208101905061203b565b50505050905090810190601f1680156120835780820380516001836020036101000a031916815260200191505b50848103835286818151815260200191508051906020019080838360005b838110156120bc5780820151818401526020810190506120a1565b50505050905090810190601f1680156120e95780820380516001836020036101000a031916815260200191505b50848103825285818151815260200191508051906020019080838360005b83811015612122578082015181840152602081019050612107565b50505050905090810190601f16801561214f5780820380516001836020036101000a031916815260200191505b509750505050505050506020604051808303818588803b15801561217257600080fd5b505af1158015612186573d6000803e3d6000fd5b50505050506040513d602081101561219d57600080fd5b81019080805190602001909291905050509150505b9392505050565b6000813b9050919050565b60006121ce6121d5565b9050919050565b6000806121f5731d3b2638a7cc9f2cb3d298a3da7a90b67e5506ed6121b9565b111561229757731d3b2638a7cc9f2cb3d298a3da7a90b67e5506ed600160006101000a81548173ffffffffffffffffffffffffffffffffffffffff021916908373ffffffffffffffffffffffffffffffffffffffff16021790555061228e6040518060400160405280600b81526020017f6574685f6d61696e6e657400000000000000000000000000000000000000000081525061272c565b60019050612729565b60006122b673c03a2615d5efaf5f49f60b7bb6583eaec212fdf16121b9565b11156123585773c03a2615d5efaf5f49f60b7bb6583eaec212fdf1600160006101000a81548173ffffffffffffffffffffffffffffffffffffffff021916908373ffffffffffffffffffffffffffffffffffffffff16021790555061234f6040518060400160405280600c81526020017f6574685f726f707374656e33000000000000000000000000000000000000000081525061272c565b60019050612729565b600061237773b7a07bcf2ba2f2703b24c0691b5278999c59ac7e6121b9565b11156124195773b7a07bcf2ba2f2703b24c0691b5278999c59ac7e600160006101000a81548173ffffffffffffffffffffffffffffffffffffffff021916908373ffffffffffffffffffffffffffffffffffffffff1602179055506124106040518060400160405280600981526020017f6574685f6b6f76616e000000000000000000000000000000000000000000000081525061272c565b60019050612729565b600061243873146500cfd35b22e4a392fe0adc06de1a1368ed486121b9565b11156124da5773146500cfd35b22e4a392fe0adc06de1a1368ed48600160006101000a81548173ffffffffffffffffffffffffffffffffffffffff021916908373ffffffffffffffffffffffffffffffffffffffff1602179055506124d16040518060400160405280600b81526020017f6574685f72696e6b65627900000000000000000000000000000000000000000081525061272c565b60019050612729565b60006124f973a2998efd205fb9d4b4963afb70778d6354ad3a416121b9565b111561259b5773a2998efd205fb9d4b4963afb70778d6354ad3a41600160006101000a81548173ffffffffffffffffffffffffffffffffffffffff021916908373ffffffffffffffffffffffffffffffffffffffff1602179055506125926040518060400160405280600a81526020017f6574685f676f65726c690000000000000000000000000000000000000000000081525061272c565b60019050612729565b60006125ba736f485c8bf6fc43ea212e93bbf8ce046c7f1cb4756121b9565b111561261e57736f485c8bf6fc43ea212e93bbf8ce046c7f1cb475600160006101000a81548173ffffffffffffffffffffffffffffffffffffffff021916908373ffffffffffffffffffffffffffffffffffffffff16021790555060019050612729565b600061263d7320e12a1f859b3feae5fb2a0a32c18f5a65555bbf6121b9565b11156126a1577320e12a1f859b3feae5fb2a0a32c18f5a65555bbf600160006101000a81548173ffffffffffffffffffffffffffffffffffffffff021916908373ffffffffffffffffffffffffffffffffffffffff16021790555060019050612729565b60006126c07351efaf4c8b3c9afbd5ab9f4bbc82784ab6ef8faa6121b9565b1115612724577351efaf4c8b3c9afbd5ab9f4bbc82784ab6ef8faa600160006101000a81548173ffffffffffffffffffffffffffffffffffffffff021916908373ffffffffffffffffffffffffffffffffffffffff16021790555060019050612729565b600090505b90565b8060029080519060200190612742929190612764565b5050565b60405180602001604052806000600281111561275e57fe5b81525090565b828054600181600116156101000203166002900490600052602060002090601f016020900481019282601f106127a557805160ff19168380011785556127d3565b828001600101855582156127d3579182015b828111156127d25782518255916020019190600101906127b7565b5b5090506127e091906127e4565b5090565b61280691905b808211156128025760008160009055506001016127ea565b5090565b9056fe50726f7661626c65207175657279207761732073656e742c207374616e64696e6720627920666f722074686520616e737765722e2e50726f7661626c6520717565727920776173204e4f542073656e742c20706c656173652061646420736f6d652045544820746f20636f76657220666f7220746865207175657279206665650a7b226a736f6e727063223a2022322e30222c20226d6574686f64223a202267656e65726174655369676e6564496e746567657273222c2022706172616d73223a207b20226170694b6579223a202230303030303030302d303030302d303030302d303030302d303030303030303030303030222c20226e223a20312c20226d696e223a20312c20226d6178223a203130302c20227265706c6163656d656e74223a20747275652c202262617365223a203130207d2c20226964223a203134323135207d6a736f6e2868747470733a2f2f6170692e70726f2e636f696e626173652e636f6d2f70726f64756374732f4254432d5553442f7469636b6572292e70726963656a736f6e2868747470733a2f2f6170692e72616e646f6d2e6f72672f6a736f6e2d7270632f322f696e766f6b65292e726573756c742e72616e646f6d2e646174616a736f6e2868747470733a2f2f6170692e70726f2e636f696e626173652e636f6d2f70726f64756374732f4554482d5553442f7469636b6572292e7072696365a2646970667358221220962f62eaa244f4fbe95d01be2d8b4a0f18d8e565e0b4d3dba07de2a151f4c41f64736f6c63430006060033436f6e7374727563746f722077617320696e697469617465642e20526561647920746f2073656e64207468652050726f7661626c652051756572792e",
  "source": "pragma solidity > 0.6.1 < 0.7.0;\r\n\r\nimport \"./provableAPI_0.6.sol\";\r\n\r\ncontract OracleTest is usingProvable {\r\n\r\n    uint public randomNumber;\r\n    uint public ethPrice;\r\n    uint public btcPrice;\r\n\r\n    enum oraclizeState { random, ethprice, btcprice }\r\n\r\n    struct oraclizeCallback {\r\n        oraclizeState oState;\r\n    }\r\n\r\n    mapping (bytes32 => oraclizeCallback) oraclizeCallbacks;\r\n    mapping(bytes32 => bool) validIds;\r\n\r\n    event LogConstructorInitiated(string message);\r\n    event LogNewProvableQuery(string description);\r\n    event LogQueryId(bytes32 queryID);\r\n    // event LogCallbackResult(string message);\r\n\r\n    // bytes32 rngId = provable_query(\r\n    //     \"nested\",\r\n    //     \"[URL] ['json(https://api.random.org/json-rpc/1/invoke).result.random[\\\"serialNumber\\\",\\\"data\\\"]', '\\\\n{\\\"jsonrpc\\\":\\\"2.0\\\",\\\"method\\\":\\\"generateSignedIntegers\\\",\\\"params\\\":{\\\"apiKey\\\":${[decrypt] BKg3TCs7lkzNr1kR6pxjPCM2SOejcFojUPMTOsBkC/47HHPf1sP2oxVLTjNBu+slR9SgZyqDtjVOV5Yzg12iUkbubp0DpcjCEdeJTHnGwC6gD729GUVoGvo96huxwRoZlCjYO80rWq2WGYoR/LC3WampDuvv2Bo=},\\\"n\\\":1,\\\"min\\\":1,\\\"max\\\":100,\\\"replacement\\\":true,\\\"base\\\":10${[identity] \\\"}\\\"},\\\"id\\\":1${[identity] \\\"}\\\"}']\",\r\n    //     gasForOracalize\r\n    // );\r\n\r\n    // GAS problems\r\n    // strConcat('\\n{\"jsonrpc\": \"2.0\", \"method\": \"generateSignedIntegers\", \"params\": { \"apiKey\": \"5e53c82d-bdc9-4a29-aa27-0eac7f754c3a\", \"n\": 1, \"min\":', _min ,', \"max\":', _max ,', \"replacement\": true, \"base\": 10 }, \"id\": 14215 }')\r\n\r\n    constructor() payable public {\r\n        // provable_setProof(proofType_TLSNotary | proofStorage_IPFS);\r\n        emit LogConstructorInitiated(\"Constructor was initiated. Ready to send the Provable Query.\");\r\n    }\r\n\r\n    function __callback(bytes32 _myId, string memory _result) virtual public override {\r\n        require(msg.sender == provable_cbAddress());\r\n        require(validIds[_myId]);\r\n        // emit LogCallbackResult('Callback called, Result is ready');\r\n\r\n\r\n        oraclizeCallback memory OC = oraclizeCallbacks[_myId];\r\n        if(OC.oState == oraclizeState.random) {\r\n            // emit LogCallbackResult('Callback called, Result is ready', _result);\r\n            randomNumber = parseInt(_result);\r\n            validIds[_myId] = false;\r\n        }\r\n\r\n        if(OC.oState == oraclizeState.ethprice) {\r\n            // emit LogCallbackResult('Callback called, Result is ready', _result);\r\n            ethPrice = parseInt(_result, 2);\r\n            validIds[_myId] = false;\r\n        }\r\n\r\n        if(OC.oState == oraclizeState.btcprice) {\r\n            // emit LogCallbackResult('Callback called, Result is ready', _result);\r\n            btcPrice = parseInt(_result, 2);\r\n            validIds[_myId] = false;\r\n        }\r\n        //Using delete on an array leaves a gap. The length of the array remains the same. If you want to remove the empty position\r\n        // you need to shift items manually and update the length property.\r\n        // delete validIds[_myId];\r\n    }\r\n\r\n\r\n    function getRandomNumber() payable public {\r\n        if (provable_getPrice(\"URL\") > address(this).balance) {\r\n            emit LogNewProvableQuery(\"Provable query was NOT sent, please add some ETH to cover for the query fee\");\r\n        } else {\r\n            emit LogNewProvableQuery(\"Provable query was sent, standing by for the answer..\");\r\n            bytes32 _id = provable_query(\r\n                \"URL\",\r\n                'json(https://api.random.org/json-rpc/2/invoke).result.random.data',\r\n                '\\n{\"jsonrpc\": \"2.0\", \"method\": \"generateSignedIntegers\", \"params\": { \"apiKey\": \"00000000-0000-0000-0000-000000000000\", \"n\": 1, \"min\": 1, \"max\": 100, \"replacement\": true, \"base\": 10 }, \"id\": 14215 }'\r\n            );\r\n            validIds[_id] = true;\r\n            oraclizeCallbacks[_id] = oraclizeCallback(oraclizeState.random);\r\n            emit LogQueryId(_id);\r\n        }\r\n    }\r\n\r\n\r\n    function getEthPrice() payable public {\r\n        if (provable_getPrice(\"URL\") > address(this).balance) {\r\n            emit LogNewProvableQuery(\"Provable query was NOT sent, please add some ETH to cover for the query fee\");\r\n        } else {\r\n            emit LogNewProvableQuery(\"Provable query was sent, standing by for the answer..\");\r\n            bytes32 _id = provable_query(\r\n                \"URL\",\r\n                'json(https://api.pro.coinbase.com/products/ETH-USD/ticker).price'\r\n            );\r\n            validIds[_id] = true;\r\n            oraclizeCallbacks[_id] = oraclizeCallback(oraclizeState.ethprice);\r\n            emit LogQueryId(_id);\r\n        }\r\n\r\n    }\r\n\r\n    function getBtcPrice() payable public {\r\n        if (provable_getPrice(\"URL\") > address(this).balance) {\r\n            emit LogNewProvableQuery(\"Provable query was NOT sent, please add some ETH to cover for the query fee\");\r\n        } else {\r\n            emit LogNewProvableQuery(\"Provable query was sent, standing by for the answer..\");\r\n            bytes32 _id = provable_query(\r\n                \"URL\",\r\n                'json(https://api.pro.coinbase.com/products/BTC-USD/ticker).price'\r\n            );\r\n            validIds[_id] = true;\r\n            oraclizeCallbacks[_id] = oraclizeCallback(oraclizeState.btcprice);\r\n            emit LogQueryId(_id);\r\n        }\r\n\r\n    }\r\n\r\n}",
  "sourcePath": "C:\\Users\\Kahan Majmudar\\OneDrive\\Study\\Blockchain BTP\\Oracles\\contracts\\OracleService.sol",
  "compiler": {
    "name": "solc",
    "version": "0.6.6+commit.6c089d02.Emscripten.clang"
  },
  "schemaVersion": "3.0.23",
  "updatedAt": "2020-05-01T07:12:29.591Z",
  "networkType": "ethereum",
  "devdoc": {
    "methods": {}
  },
  "userdoc": {
    "methods": {}
  }
}